{
  "contractName": "Lottery",
  "abi": [
    {
      "inputs": [],
      "stateMutability": "nonpayable",
      "type": "constructor"
    },
    {
      "anonymous": false,
      "inputs": [
        {
          "indexed": false,
          "internalType": "uint256",
          "name": "id",
          "type": "uint256"
        },
        {
          "indexed": false,
          "internalType": "string",
          "name": "winAmount",
          "type": "string"
        }
      ],
      "name": "Result",
      "type": "event"
    },
    {
      "anonymous": false,
      "inputs": [
        {
          "indexed": false,
          "internalType": "uint256",
          "name": "startRound",
          "type": "uint256"
        },
        {
          "indexed": false,
          "internalType": "uint256",
          "name": "endRound",
          "type": "uint256"
        }
      ],
      "name": "Timer",
      "type": "event"
    },
    {
      "anonymous": false,
      "inputs": [
        {
          "indexed": false,
          "internalType": "uint256",
          "name": "id",
          "type": "uint256"
        },
        {
          "indexed": false,
          "internalType": "address",
          "name": "player",
          "type": "address"
        },
        {
          "indexed": false,
          "internalType": "string",
          "name": "win",
          "type": "string"
        },
        {
          "indexed": false,
          "internalType": "uint256",
          "name": "prize",
          "type": "uint256"
        }
      ],
      "name": "Win",
      "type": "event"
    },
    {
      "anonymous": false,
      "inputs": [
        {
          "indexed": false,
          "internalType": "uint256",
          "name": "id",
          "type": "uint256"
        },
        {
          "indexed": false,
          "internalType": "uint256[3]",
          "name": "ramdom",
          "type": "uint256[3]"
        },
        {
          "indexed": false,
          "internalType": "string",
          "name": "coefficient",
          "type": "string"
        },
        {
          "indexed": false,
          "internalType": "uint256",
          "name": "total",
          "type": "uint256"
        }
      ],
      "name": "newRound",
      "type": "event"
    },
    {
      "anonymous": false,
      "inputs": [
        {
          "indexed": false,
          "internalType": "uint256",
          "name": "id",
          "type": "uint256"
        },
        {
          "indexed": false,
          "internalType": "uint256[3]",
          "name": "number",
          "type": "uint256[3]"
        },
        {
          "indexed": false,
          "internalType": "string",
          "name": "coefficient",
          "type": "string"
        },
        {
          "indexed": false,
          "internalType": "uint256",
          "name": "roundID",
          "type": "uint256"
        },
        {
          "indexed": false,
          "internalType": "address",
          "name": "player",
          "type": "address"
        },
        {
          "indexed": false,
          "internalType": "uint256",
          "name": "price",
          "type": "uint256"
        }
      ],
      "name": "newTicket",
      "type": "event"
    },
    {
      "anonymous": false,
      "inputs": [
        {
          "indexed": false,
          "internalType": "address",
          "name": "player",
          "type": "address"
        },
        {
          "indexed": false,
          "internalType": "uint256",
          "name": "tongve",
          "type": "uint256"
        },
        {
          "indexed": false,
          "internalType": "uint256",
          "name": "tongtien",
          "type": "uint256"
        }
      ],
      "name": "totalMoney",
      "type": "event"
    },
    {
      "anonymous": false,
      "inputs": [
        {
          "indexed": false,
          "internalType": "address",
          "name": "_from",
          "type": "address"
        },
        {
          "indexed": false,
          "internalType": "address",
          "name": "_to",
          "type": "address"
        },
        {
          "indexed": false,
          "internalType": "uint256",
          "name": "quantilyFreeTicket",
          "type": "uint256"
        }
      ],
      "name": "transferFree",
      "type": "event"
    },
    {
      "inputs": [],
      "name": "RoundId",
      "outputs": [
        {
          "internalType": "uint256",
          "name": "",
          "type": "uint256"
        }
      ],
      "stateMutability": "view",
      "type": "function",
      "constant": true
    },
    {
      "inputs": [],
      "name": "TicketID",
      "outputs": [
        {
          "internalType": "uint256",
          "name": "",
          "type": "uint256"
        }
      ],
      "stateMutability": "view",
      "type": "function",
      "constant": true
    },
    {
      "inputs": [],
      "name": "TotalJP1",
      "outputs": [
        {
          "internalType": "uint256",
          "name": "",
          "type": "uint256"
        }
      ],
      "stateMutability": "view",
      "type": "function",
      "constant": true
    },
    {
      "inputs": [],
      "name": "TotalJP2",
      "outputs": [
        {
          "internalType": "uint256",
          "name": "",
          "type": "uint256"
        }
      ],
      "stateMutability": "view",
      "type": "function",
      "constant": true
    },
    {
      "inputs": [],
      "name": "TotalTicket",
      "outputs": [
        {
          "internalType": "uint256",
          "name": "",
          "type": "uint256"
        }
      ],
      "stateMutability": "view",
      "type": "function",
      "constant": true
    },
    {
      "inputs": [],
      "name": "endTime",
      "outputs": [
        {
          "internalType": "uint256",
          "name": "",
          "type": "uint256"
        }
      ],
      "stateMutability": "view",
      "type": "function",
      "constant": true
    },
    {
      "inputs": [],
      "name": "gameID",
      "outputs": [
        {
          "internalType": "uint256",
          "name": "",
          "type": "uint256"
        }
      ],
      "stateMutability": "view",
      "type": "function",
      "constant": true
    },
    {
      "inputs": [
        {
          "internalType": "uint256",
          "name": "",
          "type": "uint256"
        }
      ],
      "name": "games",
      "outputs": [
        {
          "internalType": "uint256",
          "name": "id",
          "type": "uint256"
        },
        {
          "internalType": "uint256",
          "name": "amout",
          "type": "uint256"
        },
        {
          "internalType": "address",
          "name": "player",
          "type": "address"
        },
        {
          "internalType": "uint256",
          "name": "sochon",
          "type": "uint256"
        },
        {
          "internalType": "uint256",
          "name": "ramdom",
          "type": "uint256"
        },
        {
          "internalType": "string",
          "name": "kq",
          "type": "string"
        }
      ],
      "stateMutability": "view",
      "type": "function",
      "constant": true
    },
    {
      "inputs": [],
      "name": "owner",
      "outputs": [
        {
          "internalType": "address",
          "name": "",
          "type": "address"
        }
      ],
      "stateMutability": "view",
      "type": "function",
      "constant": true
    },
    {
      "inputs": [
        {
          "internalType": "uint256",
          "name": "",
          "type": "uint256"
        }
      ],
      "name": "rounds",
      "outputs": [
        {
          "internalType": "uint256",
          "name": "id",
          "type": "uint256"
        },
        {
          "internalType": "string",
          "name": "coefficient",
          "type": "string"
        },
        {
          "internalType": "uint256",
          "name": "total",
          "type": "uint256"
        }
      ],
      "stateMutability": "view",
      "type": "function",
      "constant": true
    },
    {
      "inputs": [
        {
          "internalType": "uint256",
          "name": "",
          "type": "uint256"
        }
      ],
      "name": "tickets",
      "outputs": [
        {
          "internalType": "uint256",
          "name": "id",
          "type": "uint256"
        },
        {
          "internalType": "string",
          "name": "coefficient",
          "type": "string"
        },
        {
          "internalType": "uint256",
          "name": "roundID",
          "type": "uint256"
        },
        {
          "internalType": "address",
          "name": "player",
          "type": "address"
        },
        {
          "internalType": "uint256",
          "name": "price",
          "type": "uint256"
        },
        {
          "internalType": "string",
          "name": "win",
          "type": "string"
        },
        {
          "internalType": "uint256",
          "name": "prize",
          "type": "uint256"
        }
      ],
      "stateMutability": "view",
      "type": "function",
      "constant": true
    },
    {
      "inputs": [
        {
          "internalType": "address",
          "name": "",
          "type": "address"
        }
      ],
      "name": "ves",
      "outputs": [
        {
          "internalType": "uint256",
          "name": "ve",
          "type": "uint256"
        }
      ],
      "stateMutability": "view",
      "type": "function",
      "constant": true
    },
    {
      "inputs": [
        {
          "internalType": "uint256[3]",
          "name": "numbers",
          "type": "uint256[3]"
        }
      ],
      "name": "buyTicket",
      "outputs": [],
      "stateMutability": "payable",
      "type": "function",
      "payable": true
    },
    {
      "inputs": [
        {
          "internalType": "uint256",
          "name": "quantity",
          "type": "uint256"
        }
      ],
      "name": "buyMutilTickets",
      "outputs": [],
      "stateMutability": "payable",
      "type": "function",
      "payable": true
    },
    {
      "inputs": [],
      "name": "dial",
      "outputs": [],
      "stateMutability": "nonpayable",
      "type": "function"
    },
    {
      "inputs": [],
      "name": "getRound",
      "outputs": [
        {
          "components": [
            {
              "internalType": "uint256",
              "name": "id",
              "type": "uint256"
            },
            {
              "internalType": "uint256[3]",
              "name": "number",
              "type": "uint256[3]"
            },
            {
              "internalType": "string",
              "name": "coefficient",
              "type": "string"
            },
            {
              "internalType": "uint256",
              "name": "total",
              "type": "uint256"
            }
          ],
          "internalType": "struct Lottery.Round[]",
          "name": "",
          "type": "tuple[]"
        }
      ],
      "stateMutability": "view",
      "type": "function",
      "constant": true
    },
    {
      "inputs": [],
      "name": "getTicket",
      "outputs": [
        {
          "components": [
            {
              "internalType": "uint256",
              "name": "id",
              "type": "uint256"
            },
            {
              "internalType": "uint256[3]",
              "name": "number",
              "type": "uint256[3]"
            },
            {
              "internalType": "string",
              "name": "coefficient",
              "type": "string"
            },
            {
              "internalType": "uint256",
              "name": "roundID",
              "type": "uint256"
            },
            {
              "internalType": "address",
              "name": "player",
              "type": "address"
            },
            {
              "internalType": "uint256",
              "name": "price",
              "type": "uint256"
            },
            {
              "internalType": "string",
              "name": "win",
              "type": "string"
            },
            {
              "internalType": "uint256",
              "name": "prize",
              "type": "uint256"
            }
          ],
          "internalType": "struct Lottery.Ticket[]",
          "name": "",
          "type": "tuple[]"
        }
      ],
      "stateMutability": "view",
      "type": "function",
      "constant": true
    },
    {
      "inputs": [
        {
          "internalType": "uint256",
          "name": "_index",
          "type": "uint256"
        }
      ],
      "name": "removeArray",
      "outputs": [],
      "stateMutability": "nonpayable",
      "type": "function"
    },
    {
      "inputs": [
        {
          "internalType": "uint256",
          "name": "_index",
          "type": "uint256"
        }
      ],
      "name": "getRamdomArray",
      "outputs": [
        {
          "internalType": "uint256",
          "name": "",
          "type": "uint256"
        }
      ],
      "stateMutability": "view",
      "type": "function",
      "constant": true
    },
    {
      "inputs": [
        {
          "internalType": "uint256",
          "name": "_index",
          "type": "uint256"
        }
      ],
      "name": "getRamdomCoefficient",
      "outputs": [
        {
          "internalType": "uint256",
          "name": "",
          "type": "uint256"
        }
      ],
      "stateMutability": "view",
      "type": "function",
      "constant": true
    },
    {
      "inputs": [],
      "name": "getBalance",
      "outputs": [
        {
          "internalType": "uint256",
          "name": "",
          "type": "uint256"
        }
      ],
      "stateMutability": "view",
      "type": "function",
      "constant": true
    },
    {
      "inputs": [
        {
          "internalType": "uint256",
          "name": "chon",
          "type": "uint256"
        }
      ],
      "name": "GameMini1",
      "outputs": [],
      "stateMutability": "payable",
      "type": "function",
      "payable": true
    },
    {
      "inputs": [
        {
          "internalType": "uint256",
          "name": "_index",
          "type": "uint256"
        }
      ],
      "name": "getRamdom",
      "outputs": [
        {
          "internalType": "uint256",
          "name": "",
          "type": "uint256"
        }
      ],
      "stateMutability": "view",
      "type": "function",
      "constant": true
    },
    {
      "inputs": [
        {
          "internalType": "uint256[3]",
          "name": "numbers",
          "type": "uint256[3]"
        }
      ],
      "name": "buyTicketGame",
      "outputs": [],
      "stateMutability": "nonpayable",
      "type": "function"
    },
    {
      "inputs": [
        {
          "internalType": "address",
          "name": "_from",
          "type": "address"
        },
        {
          "internalType": "address",
          "name": "_to",
          "type": "address"
        },
        {
          "internalType": "uint256",
          "name": "quantilyFreeTicket",
          "type": "uint256"
        }
      ],
      "name": "transferFreeTicket",
      "outputs": [],
      "stateMutability": "nonpayable",
      "type": "function"
    }
  ],
  "bytecode": "0x61012c600355600060048181556005829055600682905560078290556008919091556001610100818152604160f81b610120526080908152610140828152602160f91b6101605260a052610180828152604360f81b6101a05260c0526102006040526101c0918252601160fa1b6101e05260e091909152620000859160099190620001c4565b50604080516101408101825260008152600160208201526002918101919091526003606082015260046080820152600560a0820152600660c0820152600760e082015260086101008201526009610120820152620000e790600a908162000228565b506000600d55348015620000fa57600080fd5b50600080546001600160a01b03191633179055620001176200011d565b6200044e565b60025442116200014a5760405162461bcd60e51b8152600401620001419062000373565b60405180910390fd5b600254421115620001c2576004805490600062000167836200041a565b90915550504260018190556003546200018091620003c2565b60028190556001546040517f128fb73f2ab78d09be13785bd8bba77b0416aff50ef1188f9b674b3eda32866492620001b99291620003b4565b60405180910390a15b565b82805482825590600052602060002090810192821562000216579160200282015b828111156200021657825180516200020591849160209091019062000279565b5091602001919060010190620001e5565b5062000224929150620002f6565b5090565b8280548282559060005260206000209081019282156200026b579160200282015b828111156200026b578251829060ff1690559160200191906001019062000249565b506200022492915062000317565b8280546200028790620003dd565b90600052602060002090601f016020900481019282620002ab57600085556200026b565b82601f10620002c657805160ff19168380011785556200026b565b828001600101855582156200026b579182015b828111156200026b578251825591602001919060010190620002d9565b80821115620002245760006200030d82826200032e565b50600101620002f6565b5b8082111562000224576000815560010162000318565b5080546200033c90620003dd565b6000825580601f1062000350575062000370565b601f01602090049060005260206000209081019062000370919062000317565b50565b60208082526021908201527f54686f69206769616e206368756120686574206b6f20746865206261742064616040820152607560f81b606082015260800190565b918252602082015260400190565b60008219821115620003d857620003d862000438565b500190565b600281046001821680620003f257607f821691505b602082108114156200041457634e487b7160e01b600052602260045260246000fd5b50919050565b600060001982141562000431576200043162000438565b5060010190565b634e487b7160e01b600052601160045260246000fd5b613a15806200045e6000396000f3fe6080604052600436106101665760003560e01c80638c887bda116100d1578063c002c4d61161008a578063c7dd4b4f11610064578063c7dd4b4f146103eb578063c7de5b4314610400578063dd9904f114610420578063f869a0641461043357610166565b8063c002c4d614610389578063c20d7973146103ab578063c4c4e425146103cb57610166565b80638c887bda146102f55780638da5cb5b1461030857806397bcd0641461032a5780639f8743f71461033d578063ae811abc1461035f578063b5a1b0d51461037457610166565b8063509a13dd11610123578063509a13dd1461023457806350b4471214610249578063661ef75d1461027c57806376212f46146102915780638bd8a74e146102a65780638c65c81f146102c657610166565b806309df655c1461016b57806310fde37f146101a1578063117a5b90146101b657806312065fe0146101e85780633197cbb6146101fd5780633becdae914610212575b600080fd5b34801561017757600080fd5b5061018b610186366004613233565b610453565b60405161019891906133f0565b60405180910390f35b3480156101ad57600080fd5b5061018b6104a1565b3480156101c257600080fd5b506101d66101d1366004613233565b6104a7565b60405161019896959493929190613840565b3480156101f457600080fd5b5061018b610572565b34801561020957600080fd5b5061018b610576565b34801561021e57600080fd5b5061023261022d366004613176565b61057c565b005b34801561024057600080fd5b5061018b610637565b34801561025557600080fd5b50610269610264366004613233565b61063d565b60405161019897969594939291906137b4565b34801561028857600080fd5b5061018b6107aa565b34801561029d57600080fd5b5061018b6107b0565b3480156102b257600080fd5b506102326102c13660046131b1565b6107b6565b3480156102d257600080fd5b506102e66102e1366004613233565b610ae1565b6040516101989392919061378b565b610232610303366004613233565b610b9f565b34801561031457600080fd5b5061031d610c6f565b60405161019891906133f9565b6102326103383660046131b1565b610c7e565b34801561034957600080fd5b50610352610fad565b6040516101989190613452565b34801561036b57600080fd5b50610232611247565b34801561038057600080fd5b5061018b611605565b34801561039557600080fd5b5061039e61160b565b60405161019891906134e8565b3480156103b757600080fd5b5061018b6103c6366004613233565b61195b565b3480156103d757600080fd5b5061018b6103e6366004613233565b61196a565b3480156103f757600080fd5b5061018b61197c565b34801561040c57600080fd5b5061023261041b366004613233565b611982565b61023261042e366004613233565b611a69565b34801561043f57600080fd5b5061018b61044e366004613155565b611e86565b600a5460009081906104658442613885565b60405160200161047591906133f0565b6040516020818303038152906040528051906020012060001c6104989190613969565b9150505b919050565b60085481565b600e60205260009081526040902080546001820154600283015460038401546004850154600586018054959694956001600160a01b039094169492939192916104ef90613913565b80601f016020809104026020016040519081016040528092919081815260200182805461051b90613913565b80156105685780601f1061053d57610100808354040283529160200191610568565b820191906000526020600020905b81548152906001019060200180831161054b57829003601f168201915b5050505050905086565b4790565b60025481565b6001600160a01b0383166000908152600f6020526040902080548211156105be5760405162461bcd60e51b81526004016105b590613629565b60405180910390fd5b80546105cb9083906138d0565b81556001600160a01b0383166000908152600f6020526040902080546105f2908490613885565b81556040517f178415ea6e4367568b778662dec0a1d03955b6b493daafb50efff486f7295387906106289087908790879061340d565b60405180910390a15050505050565b60045481565b600c818154811061064d57600080fd5b60009182526020909120600a9091020180546004820180549193509061067290613913565b80601f016020809104026020016040519081016040528092919081815260200182805461069e90613913565b80156106eb5780601f106106c0576101008083540402835291602001916106eb565b820191906000526020600020905b8154815290600101906020018083116106ce57829003601f168201915b505050600584015460068501546007860154600887018054969793966001600160a01b0390931695509093509061072190613913565b80601f016020809104026020016040519081016040528092919081815260200182805461074d90613913565b801561079a5780601f1061076f5761010080835404028352916020019161079a565b820191906000526020600020905b81548152906001019060200180831161077d57829003601f168201915b5050505050908060090154905087565b60055481565b60075481565b336000908152600f6020526040902080546107e35760405162461bcd60e51b81526004016105b5906135bb565b8151600910156108055760405162461bcd60e51b81526004016105b5906136e0565b815160208301511480159061082257506040820151602083015114155b801561083357506040820151825114155b61084f5760405162461bcd60e51b81526004016105b5906136b2565b600181600001600082825461086491906138d0565b9091555050600780549060006108798361394e565b909155505060408051602081019091526000815260075460099061089c9061196a565b815481106108ba57634e487b7160e01b600052603260045260246000fd5b9060005260206000200180546108cf90613913565b80601f01602080910402602001604051908101604052809291908181526020018280546108fb90613913565b80156109485780601f1061091d57610100808354040283529160200191610948565b820191906000526020600020905b81548152906001019060200180831161092b57829003601f168201915b50506040805161010081018252600754815260208082018a8152828401889052600480546060850152336080850152662386f26fc1000060a085015284518086019095528452636e6f6e6560e01b9184019190915260c0820192909252600060e08201819052600c8054600181018255915281517fdf6966c971051c3d54ec59162606531493a51404a002842f56009d7e5cf4a8c7600a90920291820190815592519697509095869550919350610a2492507fdf6966c971051c3d54ec59162606531493a51404a002842f56009d7e5cf4a8c801906003612f98565b5060408201518051610a40916004840191602090910190612fd6565b506060820151600582015560808201516006820180546001600160a01b0319166001600160a01b0390921691909117905560a0820151600782015560c08201518051610a96916008840191602090910190612fd6565b5060e082015181600901555050662386f26fc1000060056000828254610abc9190613885565b92505081905550600160086000828254610ad69190613885565b909155505050505050565b600b8181548110610af157600080fd5b60009182526020909120600690910201805460048201805491935090610b1690613913565b80601f0160208091040260200160405190810160405280929190818152602001828054610b4290613913565b8015610b8f5780601f10610b6457610100808354040283529160200191610b8f565b820191906000526020600020905b815481529060010190602001808311610b7257829003601f168201915b5050505050908060050154905083565b600d54610bad906001613885565b600d819055600090610bbe9061195b565b6040805160c081018252600d5480825234602080840191825233848601908152606085018981526080860188815287518085018952600080825260a08901918252968752600e855297909520865181559351600185015590516002840180546001600160a01b0319166001600160a01b0390921691909117905551600383015591516004820155925180519495509193610c5e9260058501920190612fd6565b50905050610c6b33611e98565b5050565b6000546001600160a01b031681565b805160091015610ca05760405162461bcd60e51b81526004016105b5906136e0565b8051602082015114801590610cbd57506040810151602082015114155b8015610cce57506040810151815114155b610cea5760405162461bcd60e51b81526004016105b5906136b2565b60078054906000610cfa8361394e565b9091555050604080516020810190915260008152600754600990610d1d9061196a565b81548110610d3b57634e487b7160e01b600052603260045260246000fd5b906000526020600020018054610d5090613913565b80601f0160208091040260200160405190810160405280929190818152602001828054610d7c90613913565b8015610dc95780601f10610d9e57610100808354040283529160200191610dc9565b820191906000526020600020905b815481529060010190602001808311610dac57829003601f168201915b5050604080516101008101825260075481526020808201898152828401889052600480546060850152336080850152662386f26fc1000060a085015284518086019095528452636e6f6e6560e01b9184019190915260c0820192909252600060e08201819052600c8054600181018255915281517fdf6966c971051c3d54ec59162606531493a51404a002842f56009d7e5cf4a8c7600a90920291820190815592519697509095869550919350610ea592507fdf6966c971051c3d54ec59162606531493a51404a002842f56009d7e5cf4a8c801906003612f98565b5060408201518051610ec1916004840191602090910190612fd6565b506060820151600582015560808201516006820180546001600160a01b0319166001600160a01b0390921691909117905560a0820151600782015560c08201518051610f17916008840191602090910190612fd6565b5060e0820151816009015550507f3eb0dbab376e65b80fd3f1fef2391ead9536380ab3881078dfae8285423997e6600754848460045433662386f26fc10000604051610f689695949392919061373c565b60405180910390a1662386f26fc1000060056000828254610f899190613885565b92505081905550600160086000828254610fa39190613885565b9091555050505050565b606080600b805480602002602001604051908101604052809291908181526020016000905b828210156110df57600084815260209081902060408051608081018252600686029092018054835281516060810190925291928301906001830160038282826020028201915b815481526020019060010190808311611018575050505050815260200160048201805461104490613913565b80601f016020809104026020016040519081016040528092919081815260200182805461107090613913565b80156110bd5780601f10611092576101008083540402835291602001916110bd565b820191906000526020600020905b8154815290600101906020018083116110a057829003601f168201915b5050505050815260200160058201548152505081526020019060010190610fd2565b5050505090506110ed613049565b60005b825181101561123f576000611106826001613885565b90505b835181101561122c5783818151811061113257634e487b7160e01b600052603260045260246000fd5b60200260200101516000015184838151811061115e57634e487b7160e01b600052603260045260246000fd5b602002602001015160000151101561121a5783828151811061119057634e487b7160e01b600052603260045260246000fd5b602002602001015192508381815181106111ba57634e487b7160e01b600052603260045260246000fd5b60200260200101518483815181106111e257634e487b7160e01b600052603260045260246000fd5b60200260200101819052508284828151811061120e57634e487b7160e01b600052603260045260246000fd5b60200260200101819052505b806112248161394e565b915050611109565b50806112378161394e565b9150506110f0565b509091505090565b6000600a600554600261125a91906138b1565b611264919061389d565b600080546040519293506001600160a01b03169183156108fc0291849190818181858888f1935050505015801561129f573d6000803e3d6000fd5b50806005546112ae91906138d0565b60055560005b600b5481101561132457600454600b82815481106112e257634e487b7160e01b600052603260045260246000fd5b90600052602060002090600602016000015414156113125760405162461bcd60e51b81526004016105b59061367b565b8061131c8161394e565b9150506112b4565b5061132d613077565b600061133a600454610453565b9050600a818154811061135d57634e487b7160e01b600052603260045260246000fd5b600091825260209091200154825261137481611982565b6000611381600454610453565b9050600a81815481106113a457634e487b7160e01b600052603260045260246000fd5b60009182526020918290200154908401526113be81611982565b60006113cb600454610453565b9050600a81815481106113ee57634e487b7160e01b600052603260045260246000fd5b60009182526020808320909101546040808801919091528051610140810182529283526001918301919091526002908201526003606082015260046080820152600560a0820152600660c0820152600760e08201526008610100820152600961012082015261146090600a9081613095565b5060408051602081019091526000815260045460099061147f9061196a565b8154811061149d57634e487b7160e01b600052603260045260246000fd5b9060005260206000200180546114b290613913565b80601f01602080910402602001604051908101604052809291908181526020018280546114de90613913565b801561152b5780601f106115005761010080835404028352916020019161152b565b820191906000526020600020905b81548152906001019060200180831161150e57829003601f168201915b5050604080516080810182526004548152602081018b81529181018690526005546060820152600b805460018101825560009190915281517f0175b7a638427703f0dbe7bb9bbf987a2551717b34e79f33b5b1008d1fa01db96006909202918201908155925196975090958695509193506115cb92507f0175b7a638427703f0dbe7bb9bbf987a2551717b34e79f33b5b1008d1fa01dba01906003612f98565b50604082015180516115e7916004840191602090910190612fd6565b506060820151816005015550506115fc612099565b50505050505050565b60065481565b606080600c805480602002602001604051908101604052809291908181526020016000905b828210156117fb5760008481526020908190206040805161010081018252600a86029092018054835281516060810190925291928301906001830160038282826020028201915b81548152602001906001019080831161167757505050505081526020016004820180546116a390613913565b80601f01602080910402602001604051908101604052809291908181526020018280546116cf90613913565b801561171c5780601f106116f15761010080835404028352916020019161171c565b820191906000526020600020905b8154815290600101906020018083116116ff57829003601f168201915b50505091835250506005820154602082015260068201546001600160a01b031660408201526007820154606082015260088201805460809092019161176090613913565b80601f016020809104026020016040519081016040528092919081815260200182805461178c90613913565b80156117d95780601f106117ae576101008083540402835291602001916117d9565b820191906000526020600020905b8154815290600101906020018083116117bc57829003601f168201915b5050505050815260200160098201548152505081526020019060010190611630565b5050505090506118096130d5565b60005b825181101561123f576000611822826001613885565b90505b83518110156119485783818151811061184e57634e487b7160e01b600052603260045260246000fd5b60200260200101516000015184838151811061187a57634e487b7160e01b600052603260045260246000fd5b6020026020010151600001511015611936578382815181106118ac57634e487b7160e01b600052603260045260246000fd5b602002602001015192508381815181106118d657634e487b7160e01b600052603260045260246000fd5b60200260200101518483815181106118fe57634e487b7160e01b600052603260045260246000fd5b60200260200101819052508284828151811061192a57634e487b7160e01b600052603260045260246000fd5b60200260200101819052505b806119408161394e565b915050611825565b50806119538161394e565b91505061180c565b60008060036104658442613885565b60095460009081906104658442613885565b600d5481565b600a5481106119a35760405162461bcd60e51b81526004016105b59061364f565b805b600a546119b4906001906138d0565b811015611a3057600a6119c8826001613885565b815481106119e657634e487b7160e01b600052603260045260246000fd5b9060005260206000200154600a8281548110611a1257634e487b7160e01b600052603260045260246000fd5b60009182526020909120015580611a288161394e565b9150506119a5565b50600a805480611a5057634e487b7160e01b600052603160045260246000fd5b6001900381819060005260206000200160009055905550565b611a71613077565b60015b828111611df6576000611a8682610453565b9050600a8181548110611aa957634e487b7160e01b600052603260045260246000fd5b6000918252602090912001548352611ac081611982565b6000611acb83610453565b9050600a8181548110611aee57634e487b7160e01b600052603260045260246000fd5b6000918252602091829020015490850152611b0881611982565b6000611b1384610453565b9050600a8181548110611b3657634e487b7160e01b600052603260045260246000fd5b600091825260208220015460408701526007805491611b548361394e565b9091555050604080516020810190915260008152600754600990611b779061196a565b81548110611b9557634e487b7160e01b600052603260045260246000fd5b906000526020600020018054611baa90613913565b80601f0160208091040260200160405190810160405280929190818152602001828054611bd690613913565b8015611c235780601f10611bf857610100808354040283529160200191611c23565b820191906000526020600020905b815481529060010190602001808311611c0657829003601f168201915b50506040805161010081018252600754815260208082018d8152828401889052600480546060850152336080850152662386f26fc1000060a085015284518086019095528452636e6f6e6560e01b9184019190915260c0820192909252600060e08201819052600c8054600181018255915281517fdf6966c971051c3d54ec59162606531493a51404a002842f56009d7e5cf4a8c7600a90920291820190815592519697509095869550919350611cff92507fdf6966c971051c3d54ec59162606531493a51404a002842f56009d7e5cf4a8c801906003612f98565b5060408201518051611d1b916004840191602090910190612fd6565b506060820151600582015560808201516006820180546001600160a01b0319166001600160a01b0390921691909117905560a0820151600782015560c08201518051611d71916008840191602090910190612fd6565b5060e091820151600991820155604080516101408101825260008152600160208201526002918101919091526003606082015260046080820152600560a0820152600660c08201526007928101929092526008610100830152610120820152611ddd90600a9081613095565b5050505050508080611dee9061394e565b915050611a74565b507f7c4e931c98ac836cf82e52e669d969fb94ad9f46c075234ac81e1556ab1151cc3383611e2b662386f26fc10000826138b1565b604051611e3a93929190613431565b60405180910390a1611e53662386f26fc10000836138b1565b60056000828254611e649190613885565b925050819055508160086000828254611e7d9190613885565b90915550505050565b600f6020526000908152604090205481565b6001600160a01b0381166000908152600f60209081526040808320600d548452600e909252909120600481015460038201541415611f4457604080518082019091526004808252634452415760e01b6020909201918252611efd916005840191612fd6565b50600281015460018201546040516001600160a01b039092169181156108fc0291906000818181858888f19350505050158015611f3e573d6000803e3d6000fd5b50612056565b6003810154158015611f5a575080600401546001145b80611f78575080600301546001148015611f78575080600401546002145b80611f94575080600301546002148015611f9457506004810154155b1561202757604080518082019091526003808252622ba4a760e91b6020909201918252611fc5916005840191612fd6565b50600281015460018201546040516001600160a01b039092169181156108fc0291906000818181858888f19350505050158015612006573d6000803e3d6000fd5b50600182600001600082825461201c9190613885565b909155506120569050565b604080518082019091526004808252634c4f534560e01b6020909201918252612054916005840191612fd6565b505b7f0b0757697195159b9153065c6009e143c818510c8596fb3f2c42f6c4a5e9366c600d548260050160405161208c929190613811565b60405180910390a1505050565b6000600b60016004546120ac91906138d0565b815481106120ca57634e487b7160e01b600052603260045260246000fd5b60009182526020918290206040805160808101825260069093029091018054835281516060810190925291928301906001830160038282826020028201915b815481526020019060010190808311612109575050505050815260200160048201805461213590613913565b80601f016020809104026020016040519081016040528092919081815260200182805461216190613913565b80156121ae5780601f10612183576101008083540402835291602001916121ae565b820191906000526020600020905b81548152906001019060200180831161219157829003601f168201915b50505050508152602001600582015481525050905060008060005b600c548110156127d6576000600c82815481106121f657634e487b7160e01b600052603260045260246000fd5b90600052602060002090600a020160050154856000015114156127c35760005b60038110156123055760005b600c848154811061224357634e487b7160e01b600052603260045260246000fd5b5060005260038110156122f2578660200151826003811061227457634e487b7160e01b600052603260045260246000fd5b6020020151600c858154811061229a57634e487b7160e01b600052603260045260246000fd5b90600052602060002090600a020160010182600381106122ca57634e487b7160e01b600052603260045260246000fd5b015414156122e0576122dd600184613885565b92505b806122ea8161394e565b915050612222565b50806122fd8161394e565b915050612216565b50806002141561237e576040518060400160405280600b81526020016a21b7b739b7b630ba34b7b760a91b815250600c838154811061235457634e487b7160e01b600052603260045260246000fd5b90600052602060002090600a02016008019080519060200190612378929190612fd6565b50612575565b806003141561240157604051806040016040528060098152602001682530b1b5b837ba399960b91b815250600c83815481106123ca57634e487b7160e01b600052603260045260246000fd5b90600052602060002090600a020160080190805190602001906123ee929190612fd6565b506123fa600185613885565b9350612575565b806003148015612491575084604001516040516020016124219190613324565b60405160208183030381529060405280519060200120600c838154811061245857634e487b7160e01b600052603260045260246000fd5b90600052602060002090600a02016004016040516020016124799190613340565b60405160208183030381529060405280519060200120145b1561251057604051806040016040528060098152602001684a61636b706f74733160b81b815250600c83815481106124d957634e487b7160e01b600052603260045260246000fd5b90600052602060002090600a020160080190805190602001906124fd929190612fd6565b50612509600184613885565b9250612575565b6040518060400160405280600581526020016466616c736560d81b815250600c838154811061254f57634e487b7160e01b600052603260045260246000fd5b90600052602060002090600a02016008019080519060200190612573929190612fd6565b505b604051602001612584906133af565b60405160208183030381529060405280519060200120600c83815481106125bb57634e487b7160e01b600052603260045260246000fd5b90600052602060002090600a02016008016040516020016125dc9190613340565b6040516020818303038152906040528051906020012014156127c357600c828154811061261957634e487b7160e01b600052603260045260246000fd5b6000918252602082206006600a9092020101546040516001600160a01b03909116919066470de4df8200009082818181858883f19350505050158015612663573d6000803e3d6000fd5b5066470de4df820000600c838154811061268d57634e487b7160e01b600052603260045260246000fd5b90600052602060002090600a02016009018190555066470de4df8200006005546126b791906138d0565b6005819055506000805160206139c0833981519152600c83815481106126ed57634e487b7160e01b600052603260045260246000fd5b90600052602060002090600a020160000154600c848154811061272057634e487b7160e01b600052603260045260246000fd5b90600052602060002090600a020160060160009054906101000a90046001600160a01b0316600c858154811061276657634e487b7160e01b600052603260045260246000fd5b90600052602060002090600a0201600801600c868154811061279857634e487b7160e01b600052603260045260246000fd5b90600052602060002090600a0201600901546040516127ba9493929190613701565b60405180910390a15b50806127ce8161394e565b9150506121c9565b5060005b600c54811015612ef1578261280f576127f4600184613885565b92506005546006546128069190613885565b60065560006005555b816128225761281f600183613885565b91505b600c818154811061284357634e487b7160e01b600052603260045260246000fd5b90600052602060002090600a02016005015484600001511415612edf57600083600554612870919061389d565b9050604051602001612881906133c6565b60405160208183030381529060405280519060200120600c83815481106128b857634e487b7160e01b600052603260045260246000fd5b90600052602060002090600a02016008016040516020016128d99190613340565b604051602081830303815290604052805190602001201415612ab05780600c838154811061291757634e487b7160e01b600052603260045260246000fd5b90600052602060002090600a020160090181905550600c828154811061294d57634e487b7160e01b600052603260045260246000fd5b6000918252602082206006600a9092020101546040516001600160a01b039091169183156108fc02918491818181858888f19350505050158015612995573d6000803e3d6000fd5b50806005546129a491906138d0565b6005819055506000805160206139c0833981519152600c83815481106129da57634e487b7160e01b600052603260045260246000fd5b90600052602060002090600a020160000154600c8481548110612a0d57634e487b7160e01b600052603260045260246000fd5b90600052602060002090600a020160060160009054906101000a90046001600160a01b0316600c8581548110612a5357634e487b7160e01b600052603260045260246000fd5b90600052602060002090600a0201600801600c8681548110612a8557634e487b7160e01b600052603260045260246000fd5b90600052602060002090600a020160090154604051612aa79493929190613701565b60405180910390a15b600083600654612ac0919061389d565b9050604051602001612ad1906133db565b60405160208183030381529060405280519060200120600c8481548110612b0857634e487b7160e01b600052603260045260246000fd5b90600052602060002090600a0201600801604051602001612b299190613340565b604051602081830303815290604052805190602001201415612edc57673782dace9d9000006005541115612d165780600c8481548110612b7957634e487b7160e01b600052603260045260246000fd5b90600052602060002090600a020160090181905550600c8381548110612baf57634e487b7160e01b600052603260045260246000fd5b6000918252602082206006600a9092020101546040516001600160a01b039091169183156108fc02918491818181858888f19350505050158015612bf7573d6000803e3d6000fd5b5080600654612c0691906138d0565b6006819055506000805160206139c0833981519152600c8481548110612c3c57634e487b7160e01b600052603260045260246000fd5b90600052602060002090600a020160000154600c8581548110612c6f57634e487b7160e01b600052603260045260246000fd5b90600052602060002090600a020160060160009054906101000a90046001600160a01b0316600c8681548110612cb557634e487b7160e01b600052603260045260246000fd5b90600052602060002090600a0201600801600c8781548110612ce757634e487b7160e01b600052603260045260246000fd5b90600052602060002090600a020160090154604051612d099493929190613701565b60405180910390a1612edc565b6729a2241af62c0000600c8481548110612d4057634e487b7160e01b600052603260045260246000fd5b90600052602060002090600a020160090181905550600c8381548110612d7657634e487b7160e01b600052603260045260246000fd5b6000918252602082206006600a9092020101546040516001600160a01b0390911691906729a2241af62c00009082818181858883f19350505050158015612dc1573d6000803e3d6000fd5b5080600654612dd091906138d0565b6006819055506000805160206139c0833981519152600c8481548110612e0657634e487b7160e01b600052603260045260246000fd5b90600052602060002090600a020160000154600c8581548110612e3957634e487b7160e01b600052603260045260246000fd5b90600052602060002090600a020160060160009054906101000a90046001600160a01b0316600c8681548110612e7f57634e487b7160e01b600052603260045260246000fd5b90600052602060002090600a0201600801600c8781548110612eb157634e487b7160e01b600052603260045260246000fd5b90600052602060002090600a020160090154604051612ed39493929190613701565b60405180910390a15b50505b80612ee98161394e565b9150506127da565b506000600855612eff612f04565b505050565b6002544211612f255760405162461bcd60e51b81526004016105b5906135e8565b600254421115612f965760048054906000612f3f8361394e565b9091555050426001819055600354612f5691613885565b60028190556001546040517f128fb73f2ab78d09be13785bd8bba77b0416aff50ef1188f9b674b3eda32866492612f8d9291613832565b60405180910390a15b565b8260038101928215612fc6579160200282015b82811115612fc6578251825591602001919060010190612fab565b50612fd2929150613129565b5090565b828054612fe290613913565b90600052602060002090601f0160209004810192826130045760008555612fc6565b82601f1061301d57805160ff1916838001178555612fc6565b82800160010185558215612fc65791820182811115612fc6578251825591602001919060010190612fab565b604051806080016040528060008152602001613063613077565b815260200160608152602001600081525090565b60405180606001604052806003906020820280368337509192915050565b828054828255906000526020600020908101928215612fc6579160200282015b82811115612fc6578251829060ff169055916020019190600101906130b5565b604051806101000160405280600081526020016130f0613077565b8152602001606081526020016000815260200160006001600160a01b031681526020016000815260200160608152602001600081525090565b5b80821115612fd2576000815560010161312a565b80356001600160a01b038116811461049c57600080fd5b600060208284031215613166578081fd5b61316f8261313e565b9392505050565b60008060006060848603121561318a578182fd5b6131938461313e565b92506131a16020850161313e565b9150604084013590509250925092565b6000606082840312156131c2578081fd5b82601f8301126131d0578081fd5b6040516060810181811067ffffffffffffffff821117156131f3576131f36139a9565b604052808360608101861015613207578384fd5b835b6003811015613228578135835260209283019290910190600101613209565b509195945050505050565b600060208284031215613244578081fd5b5035919050565b6001600160a01b03169052565b8060005b600381101561327b57815184526020938401939091019060010161325c565b50505050565b600081518084526132998160208601602086016138e7565b601f01601f19169290920160200192915050565b600081546132ba81613913565b8085526020600183811680156132d757600181146132eb57613319565b60ff19851688840152604088019550613319565b866000528260002060005b858110156133115781548a82018601529083019084016132f6565b890184019650505b505050505092915050565b600082516133368184602087016138e7565b9190910192915050565b600080835461334e81613913565b600182811680156133665760018114613377576133a3565b60ff198416875282870194506133a3565b8786526020808720875b8581101561339a5781548a820152908401908201613381565b50505082870194505b50929695505050505050565b6a21b7b739b7b630ba34b7b760a91b8152600b0190565b682530b1b5b837ba399960b91b815260090190565b684a61636b706f74733160b81b815260090190565b90815260200190565b6001600160a01b0391909116815260200190565b6001600160a01b039384168152919092166020820152604081019190915260600190565b6001600160a01b039390931683526020830191909152604082015260600190565b60208082528251828201819052600091906040908185019080840286018301878501865b838110156134da57603f19898403018552815160c0815185528882015161349f8a870182613258565b50878201518160808701526134b682870182613281565b6060939093015160a096909601959095525094870194925090860190600101613476565b509098975050505050505050565b60208082528251828201819052600091906040908185019080840286018301878501865b838110156134da57603f19898403018552815161014081518552888201516135368a870182613258565b50878201516080828188015261354e83880183613281565b92506060840151915060a0828189015281850151925060c091506135748289018461324b565b84015160e088810191909152818501518885036101008a015292506135998484613281565b940151610120979097019690965250509487019492509086019060010161350c565b60208082526013908201527242616e206b6f206475207665206465206d756160681b604082015260600190565b60208082526021908201527f54686f69206769616e206368756120686574206b6f20746865206261742064616040820152607560f81b606082015260800190565b6020808252600c908201526b42616e206b6f20647520766560a01b604082015260600190565b6020808252601290820152711a5b99195e081bdd5d081bd988189bdd5b9960721b604082015260600190565b6020808252601a908201527f4368692071756120736f2031206c616e206d6f6920726f756e64000000000000604082015260600190565b602080825260149082015273204e686170203320736f206b686163206e68617560601b604082015260600190565b602080825260079082015266010181016901c960cd1b604082015260600190565b8481526001600160a01b038416602082015260806040820181905260009061372b908301856132ad565b905082606083015295945050505050565b60006101008883526137516020840189613258565b80608084015261376381840188613281565b60a084019690965250506001600160a01b039290921660c083015260e0909101529392505050565b6000848252606060208301526137a46060830185613281565b9050826040830152949350505050565b600088825260e060208301526137cd60e0830189613281565b604083018890526001600160a01b03871660608401526080830186905282810360a08401526137fc8186613281565b9150508260c083015298975050505050505050565b60008382526040602083015261382a60408301846132ad565b949350505050565b918252602082015260400190565b600087825286602083015260018060a01b038616604083015284606083015283608083015260c060a083015261387960c0830184613281565b98975050505050505050565b600082198211156138985761389861397d565b500190565b6000826138ac576138ac613993565b500490565b60008160001904831182151516156138cb576138cb61397d565b500290565b6000828210156138e2576138e261397d565b500390565b60005b838110156139025781810151838201526020016138ea565b8381111561327b5750506000910152565b60028104600182168061392757607f821691505b6020821081141561394857634e487b7160e01b600052602260045260246000fd5b50919050565b60006000198214156139625761396261397d565b5060010190565b60008261397857613978613993565b500690565b634e487b7160e01b600052601160045260246000fd5b634e487b7160e01b600052601260045260246000fd5b634e487b7160e01b600052604160045260246000fdfe20081341ca607b96803dda85baf0f0a153599a687b25ae6e458327c250cc2ce7a26469706673582212204e2adb7bb50390490080d63574db3abf96b1920777841d39eacf8e7f10eb4f5d64736f6c63430008000033",
  "immutableReferences": {},
  "source": "// SPDX-License-Identifier: MIT\r\n\r\npragma solidity ^0.8.0;\r\n\r\ncontract Lottery {\r\n\r\n    address public owner;\r\n    uint private startTime;\r\n    uint public endTime;\r\n    uint private duration = 5 minutes ;\r\n    uint constant TicketPrice = 0.01 ether ;\r\n    uint public RoundId = 0;\r\n    uint public TotalJP2 = 0 ;\r\n    uint public TotalJP1 = 0 ;\r\n    uint public TicketID = 0;\r\n    uint public TotalTicket = 0 ;\r\n    \r\n    string [] private hesoTk = [\"A\",\"B\",\"C\",\"D\"];\r\n    uint [] private numberArray = [0,1,2,3,4,5,6,7,8,9];\r\n    \r\n    struct Round {\r\n        uint id;\r\n        uint [3] number ;\r\n        string coefficient ;\r\n        uint total;\r\n        }\r\n    \r\n    struct Ticket{\r\n        uint id ;\r\n        uint [3] number ;\r\n        string coefficient ;\r\n        uint roundID ;\r\n        address player ;\r\n        uint price ;\r\n        string win ;\r\n        uint prize ;\r\n    }\r\n    \r\n    Round [] public rounds;\r\n    Ticket [] public tickets ;\r\n    \r\n\r\n    event Timer(uint startRound , uint endRound);\r\n    event newTicket(uint id ,uint [3] number,string coefficient ,uint roundID , address player, uint price ) ;\r\n    event newRound(uint id,uint [3] ramdom ,string coefficient , uint total);\r\n    event totalMoney(address player,uint tongve,uint tongtien);\r\n    event Win(uint id,address player,string win , uint prize) ;\r\n    \r\n    constructor () {\r\n        owner = msg.sender;\r\n        _startNewRound();\r\n    }\r\n    \r\n    // Xc nh ch to nn smart contract .\r\n    modifier onlyOwner {\r\n        require(\r\n            msg.sender == owner,\"Only owner can call this function.\"\r\n        );\r\n        _;\r\n    }\r\n        // Hm bt u 1 vng s x\r\n    function _startNewRound() private {\r\n        require(block.timestamp > endTime,\"Thoi gian chua het ko the bat dau\");\r\n        if (block.timestamp >  endTime) {\r\n            RoundId++;\r\n            startTime =  block.timestamp ;\r\n            endTime = startTime + duration ;\r\n        emit Timer(startTime, endTime);\r\n        }\r\n    }\r\n    \r\n        // Hm mua 1 v s : nhp 1 mng 3 ch s khc nhau 0 - 10 .\r\n    function buyTicket(uint[3] memory numbers) public payable{\r\n        \r\n      \r\n        require (numbers.length == 3 , \"can nhap du 3 so\");\r\n        require ( numbers[0] >= 0 && numbers[0] <=9 ,  ' 0 - 9 ' ) ;\r\n        require ( numbers[1] != numbers[0] && numbers[1] != numbers[2] && numbers[0] != numbers[2],  ' Nhap 3 so khac nhau');\r\n        \r\n        TicketID ++ ;\r\n\r\n        string memory heso =\"\";\r\n        \r\n        heso = hesoTk[getRamdomCoefficient(TicketID)];\r\n        \r\n        \r\n        Ticket memory ticket = Ticket(TicketID, numbers,heso, RoundId,msg.sender,TicketPrice,'none',0);\r\n        \r\n        tickets.push(ticket);\r\n    \r\n        emit newTicket(TicketID,numbers,heso ,RoundId,msg.sender,TicketPrice) ;\r\n        \r\n        TotalJP2 += TicketPrice ;\r\n        TotalTicket += 1;\r\n        \r\n    }\r\n    \r\n    // Hm mua s lng v s : nhp s lng v s cn mua .\r\n    function buyMutilTickets(uint quantity) public payable {\r\n    \r\n             \r\n         uint[3] memory numbers ;\r\n        \r\n         for(uint n  = 1 ; n <= quantity ; n++){\r\n             \r\n            uint indexN1 = getRamdomArray(n);\r\n                   \r\n            numbers[0] = numberArray[indexN1];\r\n                \r\n            removeArray(indexN1) ;\r\n    \r\n            uint indexN2= getRamdomArray(n);\r\n             \r\n            numbers[1] = numberArray[indexN2] ;\r\n            \r\n            removeArray(indexN2) ;\r\n                \r\n            uint indexN3= getRamdomArray(n);\r\n                 \r\n            numbers[2] = numberArray[indexN3] ;\r\n            \r\n            TicketID ++ ;\r\n\r\n            string memory heso =\"\";\r\n        \r\n            heso = hesoTk[getRamdomCoefficient(TicketID)];\r\n        \r\n            Ticket memory ticket = Ticket(TicketID,numbers,heso ,RoundId,msg.sender,TicketPrice,'none',0);\r\n            \r\n            tickets.push(ticket);\r\n            \r\n            numberArray = [0,1,2,3,4,5,6,7,8,9];\r\n            \r\n            \r\n        }\r\n        \r\n        emit totalMoney(msg.sender,quantity,quantity*TicketPrice);\r\n        TotalJP2 += quantity * TicketPrice ;\r\n        TotalTicket += quantity;\r\n    }\r\n    \r\n    \r\n    // Hm quay s : quay ra kt qua ca 1 round .\r\n    function dial() public  {\r\n        \r\n        uint hoahongadmin = TotalJP2 * 2 / 10 ;\r\n        \r\n        payable(owner).transfer(hoahongadmin) ;\r\n            \r\n        TotalJP2 = TotalJP2 - hoahongadmin ;\r\n        \r\n         for(uint i = 0 ; i < rounds.length; i++){\r\n            require(rounds[i].id != RoundId , \"Chi qua so 1 lan moi round\");\r\n         }\r\n        \r\n        uint [3] memory numbers ;\r\n           \r\n    \r\n        uint indexN1 = getRamdomArray(RoundId);\r\n               \r\n        numbers[0] = numberArray[indexN1];\r\n            \r\n        removeArray(indexN1) ;\r\n\r\n        uint indexN2= getRamdomArray(RoundId);\r\n         \r\n        numbers[1] = numberArray[indexN2] ;\r\n        \r\n        removeArray(indexN2) ;\r\n            \r\n        uint indexN3= getRamdomArray(RoundId);\r\n             \r\n        numbers[2] = numberArray[indexN3] ;\r\n            \r\n        numberArray = [0,1,2,3,4,5,6,7,8,9];\r\n\r\n        string memory heso =\"\";\r\n        \r\n        heso = hesoTk[getRamdomCoefficient(RoundId)];\r\n            \r\n        Round memory round  = Round(RoundId,numbers,heso,TotalJP2) ;\r\n         \r\n        rounds.push(round);\r\n         \r\n        _pickWinner();\r\n  \r\n    }\r\n    \r\n    // Hm kim tra ngi trng thng v gi tin vo address ngi trng .\r\n    function _pickWinner() private{\r\n            \r\n        Round memory winner = rounds[RoundId-1];\r\n\r\n        uint countJackpots2 = 0 ;\r\n        uint countJackpots1 = 0 ;\r\n        \r\n        for(uint n = 0 ; n < tickets.length; n++){\r\n         uint count =0;\r\n            if(winner.id == tickets[n].roundID){\r\n                for(uint i =0 ; i < winner.number.length ;i++){\r\n                    for(uint j = 0 ; j < tickets[n].number.length; j++){\r\n                        if(tickets[n].number[j] == winner.number[i])\r\n                            count +=1 ;\r\n                    }\r\n                }\r\n                \r\n            if(count == 2 ){\r\n              tickets[n].win = 'Consolation' ;\r\n            }\r\n\r\n            else  if(count == 3){\r\n                 tickets[n].win = 'Jackpots2'; \r\n                 countJackpots2 += 1 ;\r\n             }\r\n\r\n            else if(count == 3 && keccak256(abi.encodePacked(tickets[n].coefficient)) == keccak256(abi.encodePacked(winner.coefficient))){ \r\n                tickets[n].win = 'Jackpots1';\r\n                countJackpots1 +=1 ;\r\n            }\r\n            \r\n            else{\r\n                 tickets[n].win = 'false' ;\r\n            }\r\n\r\n\r\n            if(keccak256(abi.encodePacked(tickets[n].win)) == keccak256(abi.encodePacked(\"Consolation\"))){\r\n\r\n              payable(tickets[n].player).transfer( 0.02 ether) ;\r\n              tickets[n].prize = 0.02 ether ;\r\n            \r\n              TotalJP2 = TotalJP2 - 0.02 ether ;\r\n              \r\n              emit  Win(tickets[n].id ,tickets[n].player, tickets[n].win ,tickets[n].prize);\r\n            }\r\n        }\r\n            \r\n\r\n    }\r\n\r\n        for(uint m = 0 ; m < tickets.length; m++){\r\n\r\n            if(countJackpots2 == 0){\r\n                countJackpots2 +=1; // fix err chia cho 0\r\n                TotalJP1 = TotalJP1 + TotalJP2  ;\r\n                TotalJP2 = 0 ;\r\n            }\r\n\r\n            if(countJackpots1 == 0){\r\n                countJackpots1 +=1; // fix err chia cho 0\r\n            }\r\n\r\n            if(winner.id == tickets[m].roundID){\r\n    \r\n                uint jackpot2 = TotalJP2 / countJackpots2  ;\r\n                if(keccak256(abi.encodePacked(tickets[m].win)) == keccak256(abi.encodePacked(\"Jackpots2\"))){\r\n                    tickets[m].prize = jackpot2 ;\r\n                    payable(tickets[m].player).transfer(jackpot2);\r\n                    TotalJP2 = TotalJP2 - jackpot2 ;\r\n                    emit  Win(tickets[m].id ,tickets[m].player, tickets[m].win ,tickets[m].prize);\r\n                        \r\n                }\r\n            \r\n                uint jackpot1 = TotalJP1 / countJackpots1  ;\r\n                if(keccak256(abi.encodePacked(tickets[m].win)) == keccak256(abi.encodePacked(\"Jackpots1\"))){\r\n\r\n                    if(TotalJP2 > 4 ether){\r\n                        tickets[m].prize = jackpot1 ;\r\n                        payable(tickets[m].player).transfer(jackpot1);\r\n                        TotalJP1 = TotalJP1 - jackpot1 ;\r\n                        emit  Win(tickets[m].id ,tickets[m].player, tickets[m].win ,tickets[m].prize);\r\n                    }\r\n                    \r\n                    else {\r\n                        tickets[m].prize = 3 ether ;\r\n                        payable(tickets[m].player).transfer(3 ether);\r\n                        TotalJP1 = TotalJP1 - jackpot1 ;\r\n                        emit  Win(tickets[m].id ,tickets[m].player, tickets[m].win ,tickets[m].prize);\r\n                    }\r\n                        \r\n                }\r\n            }\r\n        }\r\n\r\n\r\n\r\n        TotalTicket = 0 ;\r\n        \r\n        _startNewRound();\r\n}\r\n    \r\n    \r\n    // Xem dy s ca V theo ID .\r\n    // function getNumberTicketByID (uint id) public view returns (uint[3] memory) {\r\n        \r\n    //     for(uint i = 0 ; i < tickets.length;i++){\r\n    //         if(id == tickets[i].id){\r\n    //             return tickets[i].number;\r\n    //         }\r\n    //     }\r\n        \r\n    // }\r\n    \r\n     // Xem dy s ca Round theo ID .\r\n    // function getNumberRoundByID (uint id) public view returns (uint[3] memory) {\r\n        \r\n    //     for(uint i = 0 ; i < rounds.length;i++){\r\n    //         if(id == rounds[i].id){\r\n    //             return rounds[i].number;\r\n    //         }\r\n    //     }\r\n        \r\n    // }\r\n    \r\n    // Ly mng Round t ID cao n ID thp\r\n    function getRound() public view returns(Round [] memory){\r\n        Round [] memory arrayR  ;\r\n        arrayR = rounds;\r\n        Round  memory temp ;\r\n        \r\n        for(uint i = 0 ; i < arrayR.length ; i++){\r\n           for (uint j = i + 1; j < arrayR.length; j++) {\r\n                if (arrayR[i].id < arrayR[j].id) {\r\n                    \r\n                    temp = arrayR[i];\r\n                    arrayR[i] =  arrayR[j];\r\n                     arrayR[j] = temp;\r\n                }\r\n             }\r\n        \r\n        }\r\n        \r\n        return arrayR ;\r\n    }\r\n    \r\n    // Ly mng Ticket t ID cao n ID thp\r\n    function getTicket() public view returns(Ticket [] memory) {\r\n        Ticket [] memory arrayTk  ;\r\n        arrayTk = tickets;\r\n        Ticket  memory temp ;\r\n        \r\n        for(uint i = 0 ; i < arrayTk.length ; i++){\r\n           for (uint j = i + 1; j < arrayTk.length; j++) {\r\n                if (arrayTk[i].id < arrayTk[j].id) {\r\n                    \r\n                     temp = arrayTk[i];\r\n                     arrayTk[i] =  arrayTk[j];\r\n                     arrayTk[j] = temp;\r\n                }\r\n             }\r\n        \r\n        }\r\n        \r\n        return arrayTk ;\r\n    }\r\n    \r\n    \r\n    // Hm xa 1 phn t trong mng numberArray\r\n    function removeArray(uint _index) public {\r\n        require(_index < numberArray.length, \"index out of bound\");\r\n\r\n        for (uint i = _index; i < numberArray.length - 1; i++) {\r\n            numberArray[i] = numberArray[i + 1];\r\n        }\r\n        numberArray.pop();\r\n    }\r\n    \r\n    // Hm ramdom mng numberArray\r\n    function getRamdomArray(uint _index) public view returns(uint256){\r\n        \r\n       uint256 ramdom =  uint256(keccak256(abi.encodePacked(block.timestamp + _index))) % numberArray.length;\r\n            \r\n       return ramdom ;\r\n               \r\n    }\r\n\r\n    function getRamdomCoefficient(uint _index) public view returns(uint256){\r\n        \r\n       uint256 ramdom =  uint256(keccak256(abi.encodePacked(block.timestamp + _index))) % hesoTk.length;\r\n            \r\n       return ramdom ;\r\n               \r\n    }\r\n    \r\n    \r\n    \r\n    // Xem s d ca smart contract\r\n    function getBalance() public view returns (uint256) {\r\n        return address(this).balance;\r\n    }\r\n    \r\n    \r\n //=======================================================================================//\r\n\r\n    // Phn 2 Mini Game    \r\n    uint public gameID= 0 ;\r\n     struct Game {\r\n        uint id ;\r\n        uint amout ;\r\n        address player ;\r\n        uint sochon ;\r\n        uint ramdom ;\r\n        string kq;\r\n    }\r\n\r\n    struct Ve {\r\n        uint ve  ;\r\n    }\r\n\r\n    event Result(uint256 id, string winAmount);\r\n    event transferFree(address _from , address _to , uint quantilyFreeTicket);\r\n\r\n    mapping (uint => Game) public games ;\r\n    mapping (address => Ve) public  ves ;\r\n\r\n    // Hm game ba ,ko , bao => ngi chi chn \r\n    function GameMini1 (uint chon ) public payable {\r\n        gameID = gameID +1 ;\r\n\r\n        uint ramdom = getRamdom(gameID);\r\n\r\n        games[gameID] = Game(gameID, msg.value, msg.sender , chon , ramdom , \"\");\r\n\r\n        kq (msg.sender);\r\n    }\r\n    // 0 : bua , 1 : keo , 2 : bao\r\n    function kq (address player) private{\r\n\r\n       Ve storage tk = ves[player];\r\n\r\n       Game storage game = games[gameID];\r\n\r\n       if(game.sochon == game.ramdom){\r\n            game.kq = \"DRAW\" ; \r\n            payable(game.player).transfer(game.amout);\r\n       }\r\n\r\n       else  if(game.sochon == 0  && game.ramdom == 1 || game.sochon == 1 && game.ramdom == 2 || game.sochon == 2  && game.ramdom == 0 ){\r\n           game.kq = \"WIN\" ;\r\n           payable(game.player).transfer(game.amout);\r\n           tk.ve += 1 ;\r\n       }\r\n\r\n       else {\r\n           game.kq = \"LOSE\" ;\r\n       }\r\n\r\n       emit Result( gameID, game.kq);\r\n    }\r\n\r\n    // Hm ramdom GameMini\r\n    function getRamdom(uint _index) public view returns(uint256){\r\n        \r\n       uint256 ramdom =  uint256(keccak256(abi.encodePacked(block.timestamp + _index))) % 3;\r\n            \r\n       return ramdom ;\r\n               \r\n    }\r\n\r\n    // Hm mua 1 v s : nhp 1 mng 3 ch s khc nhau 0 - 9 bng phiu gameMini .\r\n    function buyTicketGame(uint[3] memory numbers) public {\r\n        \r\n        Ve storage tk = ves[msg.sender];\r\n\r\n        require(tk.ve > 0 , \"Ban ko du ve de mua\");\r\n      \r\n        require (numbers.length == 3 , \"can nhap du 3 so\");\r\n        require ( numbers[0] >= 0 && numbers[0] <=9 ,  ' 0 - 9 ' ) ;\r\n        require ( numbers[1] != numbers[0] && numbers[1] != numbers[2] && numbers[0] != numbers[2],  ' Nhap 3 so khac nhau');\r\n\r\n        tk.ve -=1 ;\r\n        \r\n        TicketID ++ ;\r\n\r\n        string memory heso =\"\";\r\n        \r\n        heso = hesoTk[getRamdomCoefficient(TicketID)];\r\n        \r\n        Ticket memory ticket = Ticket(TicketID, numbers,heso, RoundId,msg.sender,TicketPrice,'none',0);\r\n        \r\n        tickets.push(ticket);\r\n\r\n\r\n        TotalJP2 += TicketPrice ;\r\n        TotalTicket += 1;\r\n        \r\n    }\r\n\r\n    function transferFreeTicket(address _from , address _to , uint quantilyFreeTicket) public {\r\n\r\n        Ve storage tkFrom = ves[_from];\r\n\r\n        require(tkFrom.ve >= quantilyFreeTicket , \"Ban ko du ve\");\r\n        tkFrom.ve = tkFrom.ve - quantilyFreeTicket ;\r\n\r\n        Ve storage tkTo = ves[_to];\r\n\r\n        tkTo.ve = tkTo.ve + quantilyFreeTicket ;\r\n\r\n        emit transferFree( _from ,  _to ,  quantilyFreeTicket);\r\n\r\n    }\r\n    \r\n}",
  "sourcePath": "E:\\Bao_ve_do_an\\11_12\\lottery_app\\lottery_app\\contracts\\Lottery.sol",
  "compiler": {
    "name": "solc",
    "version": "0.8.0+commit.c7dfd78e.Emscripten.clang"
  },
  "schemaVersion": "3.4.3",
  "updatedAt": "2021-12-12T00:54:14.353Z",
  "networkType": "ethereum",
  "devdoc": {
    "kind": "dev",
    "methods": {},
    "version": 1
  },
  "userdoc": {
    "kind": "user",
    "methods": {},
    "version": 1
  }
}